:100000000C9431000C944E000C944E000C944E0055
:100010000C9434060C940B060C94E2050C94900599
:100020000C94B9050C9467050C94E2040C94B90483
:100030000C944E000C94B7060C9465060C948E0636
:100040000C944E000C944E000C944E000C944E00F8
:100050000C944E0015051D0522052D052F053705AD
:10006000390511241FBECFE5D8E0DEBFCDBF11E0BA
:10007000A0E6B0E0EAEEFDE002C005900D92AE35DC
:10008000B107D9F721E0AEE5B1E001C01D92A93773
:10009000B207E1F70E94B4010C94F3060C9400003F
:1000A00080E090E00E948B0181E090E00E948B0153
:1000B00082E090E00E948B0183E090E00C948B0141
:1000C00080E090E00E949D0181E090E00E949D010F
:1000D00082E090E00E949D0183E090E00C949D01FD
:1000E00080E00E94790181E00E94790182E00E9413
:1000F000790183E00C947901CF93C82F60E081E00F
:100100000E94E9036C2F661F6627661F86E00E9427
:10011000E903C6FB662760F985E00E94E903C5FB99
:10012000662760F984E00E94E903C4FB662760F952
:1001300083E00E94E90361E082E00E94E9038FEC22
:1001400097E00197F1F700C0000060E082E00E94B4
:10015000E9038FEC97E00197F1F700C00000C3FBC3
:10016000662760F986E00E94E903C2FB662760F912
:1001700085E00E94E903C1FB662760F984E00E94E4
:10018000E9036C2F617083E00E94E90361E082E083
:100190000E94E9038FEC97E00197F1F700C000009F
:1001A00060E082E00E94E9038FEC97E00197F1F7AD
:1001B00000C00000CF910895CF93C82F61E081E087
:1001C0000E94E9036C2F661F6627661F86E00E9467
:1001D000E903C6FB662760F985E00E94E903C5FBD9
:1001E000662760F984E00E94E903C4FB662760F992
:1001F00083E00E94E90361E082E00E94E9038FEC62
:1002000097E00197F1F700C0000060E082E00E94F3
:10021000E9038FEC97E00197F1F700C00000C3FB02
:10022000662760F986E00E94E903C2FB662760F951
:1002300085E00E94E903C1FB662760F984E00E9423
:10024000E9036C2F617083E00E94E90361E082E0C2
:100250000E94E9038FEC97E00197F1F700C00000DE
:1002600060E082E00E94E9038FEC97E00197F1F7EC
:1002700000C00000CF9108952FE788E391E021505E
:1002800080409040E1F700C0000082E00E947C00C6
:1002900088E20E947C008CE00E947C0081E00E9449
:1002A0007C008FEC97E00197F1F700C0000086E03A
:1002B0000C947C000F931F93CF938C01C0E0F80146
:1002C000EC0FF11D8081882321F00E94DC00CF5FBC
:1002D000F6CFCF911F910F910895811103C0862F02
:1002E000806804C0813021F4862F806C0C947C00DF
:1002F0000895CF93DF93C82FD0E0CC0FDD1FC05AF5
:10030000DF4F60E088810E94E90360E08981DF912E
:10031000CF910C94E903CF93DF93C82FD0E0CC0F9B
:10032000DD1FC05ADF4F61E088810E94E90360E071
:100330008981DF91CF910C94E903CF93DF93C82F8C
:10034000D0E0CC0FDD1FC05ADF4F60E088810E94F3
:10035000E90361E08981DF91CF910C94E9030E9468
:1003600063068093760108950E946A040E943C010E
:100370000E945D0665E081E00E94D70278948FEAD2
:1003800091E00E94E0060E94E70662E083E00E949E
:100390007D0482E00E949E0462E085E00E940B05DD
:1003A00082E00E944C058FE19EE497BD86BD88E601
:1003B00090E00E945A01C0EFD6E00BED15E08FEC03
:1003C000C82E87E0D82E9EE3E92E98E0F92E0E94F1
:1003D000E906863459F40E945000DBBDCABD0E9474
:1003E000E9068634E1F38FE690E0DAC00E94E90680
:1003F000823459F40E946000DBBDCABD0E94E90648
:100400008234E1F38BE790E0CBC00E94E9068934A7
:1004100059F40E945000FBBCEABC0E94E9068934F2
:10042000E1F388E890E0BCC00E94E906873459F403
:100430000E9450001BBD0ABD0E94E9068734E1F30B
:1004400089E990E0ADC00E94E9068A3459F40E941F
:100450006000FBBCEABC0E94E9068A34E1F389EA49
:1004600090E09EC00E94E906883459F40E94600022
:100470001BBD0ABD0E94E9068834E1F38AEB90E0D7
:100480008FC00E94E906823529F4DBBCCABC8AEC25
:1004900090E086C00E94E9068C3429F41BBD0ABD99
:1004A00083ED90E07DC00E94E906833539F40E9417
:1004B0007000DBBDCABD8BED90E072C00E94E90602
:1004C000873599F461E088E00E94E90361E089E002
:1004D0000E94E90361E08AE00E94E90361E08BE0A9
:1004E0000E94E90383EE90E05BC00E94E906873733
:1004F00099F460E088E00E94E90360E089E00E94EE
:10050000E90360E08AE00E94E90360E08BE00E947A
:10051000E90384EF90E044C00E94E906853599F430
:1005200061E08CE00E94E90361E08DE00E94E90354
:1005300061E08EE00E94E90361E08FE00E94E90340
:1005400086E091E02DC00E94E906853799F460E0CD
:100550008CE00E94E90360E08DE00E94E90360E026
:100560008EE00E94E90360E08FE00E94E90386E1EB
:1005700091E016C00E94E906863539F461E085E114
:100580000E94E90387E291E00BC00E94E9068637EA
:1005900009F01DCF60E085E10E94E90382E391E06C
:1005A0000E945A0160E081E00E946D0110CF96B177
:1005B000987F96B996B16770692B66B9813069F0FA
:1005C00038F0823091F43E9A3F9A80E09AE009C078
:1005D0003E983F9888EB9BE004C03E9A3F9888E89D
:1005E00093E190937801809377013D98379A08952D
:1005F000982F9695969596958770613009F44DC021
:1006000020F0623009F496C008959130B1F028F0DE
:10061000923019F1933089F108954AB321E030E026
:10062000B90102C0660F771F8A95E2F7CB01942FBC
:10063000982B9ABB9BB3809547C047B321E030E02D
:10064000B90102C0660F771F8A95E2F7CB01942F9C
:10065000982B97BB98B3809549C044B321E030E014
:10066000B90102C0660F771F8A95E2F7CB01942F7C
:10067000982B94BB95B380954AC041B321E030E0FC
:10068000B90102C0660F771F8A95E2F7CB01942F5C
:10069000982B91BB92B380954BC09130C1F028F05C
:1006A000923031F19330A9F108954AB321E030E05E
:1006B000B90102C0660F771F8A95E2F7CB018095DA
:1006C000942F98239ABB9BB389238BBB089547B380
:1006D00021E030E0B90102C0660F771F8A95E2F78A
:1006E000CB018095942F982397BB98B389234BC057
:1006F00044B321E030E0B90102C0660F771F8A954C
:10070000E2F7CB018095942F982394BB95B389236E
:100710004CC041B321E030E0B90102C0660F771F41
:100720008A95E2F7CB018095942F982391BB92B3E1
:1007300089234DC09130B9F028F0923031F19330D7
:10074000B1F108954AB321E030E0B90102C0660F6B
:10075000771F8A95E2F7CB01962F909594239ABB49
:100760009BB3892BB2CF47B321E030E0B90102C07F
:10077000660F771F8A95E2F7CB01962F9095942309
:1007800097BB98B3892B88BB089544B321E030E030
:10079000B90102C0660F771F8A95E2F7CB01962F49
:1007A0009095942394BB95B3892B85BB089541B351
:1007B00021E030E0B90102C0660F771F8A95E2F7A9
:1007C000CB01962F9095942391BB92B3892B82BB3A
:1007D0000895982F96959695969587706130C1F5F6
:1007E000913091F028F09230D9F0933029F10895AA
:1007F0004BB321E030E0B90102C0660F771F8A9544
:10080000E2F7CB01842B3AC048B321E030E0B901D4
:1008100002C0660F771F8A95E2F7CB01842B3CC09C
:1008200045B321E030E0B90102C0660F771F8A9519
:10083000E2F7CB01842B3EC042B321E030E0B901A6
:1008400002C0660F771F8A95E2F7CB01842B40C068
:1008500061113FC09130A1F028F09230F9F093304F
:1008600059F108954BB321E030E0B90102C0660FA1
:10087000771F8A95E2F7CB01809584238BBB08957F
:1008800048B321E030E0B90102C0660F771F8A95B6
:10089000E2F7CB018095842388BB089545B321E01E
:1008A00030E0B90102C0660F771F8A95E2F7CB01ED
:1008B0008095842385BB089542B321E030E0B901DF
:1008C00002C0660F771F8A95E2F7CB0180958423DB
:1008D00082BB08950F931F93CF930EE311E0C0E006
:1008E000F80161918F018C2F0E94F802CF5FC03216
:1008F000B9F7CF911F910F910895813059F038F0D9
:10090000823071F0833091F483B780640BC083B779
:100910008F7B02C083B7806483BF83B7877F05C0A6
:1009200083B78F7B83BF83B7886083BF83B7887F9C
:1009300083BF83B76770682B63BF0895813049F028
:1009400028F0823061F0833069F0089583B78F7E9C
:1009500002C083B7806183BF83B78F7D08C083B730
:100960008F7E02C083B7806183BF83B7806283BFFD
:1009700008951F920F920FB60F9211242F933F9359
:100980004F935F936F937F938F939F93AF93BF9397
:10099000EF93FF93E0916C01F0916D01309709F0B6
:1009A0000995FF91EF91BF91AF919F918F917F91A9
:1009B0006F915F914F913F912F910F900FBE0F90CC
:1009C0001F9018951F920F920FB60F9211242F931C
:1009D0003F934F935F936F937F938F939F93AF93C7
:1009E000BF93EF93FF93E0916A01F0916B01309711
:1009F00009F00995FF91EF91BF91AF919F918F9170
:100A00007F916F915F914F913F912F910F900FBE0A
:100A10000F901F90189590E087309105A8F5FC0184
:100A2000E65DFF4F8FB50C94ED068E7F8FBD8FB5C1
:100A30008D7F8FBD8EB5877F0CC08E7F8FBD8FB5AC
:100A40008D7F1BC08E7F8FBD8FB58D7F8FBD8EB587
:100A500088608EBD8EB58F7E16C08E7F01C081608E
:100A60008FBD8FB582608FBD8EB5877F09C08E7FA9
:100A700001C081608FBD8FB582608FBD8EB58860EB
:100A80008EBD8EB580618EBD8EB5887F8EBD8EB5D4
:100A90006770682B6EBD0895813049F028F0823070
:100AA00061F0833069F008958FB58F7B02C08FB5F8
:100AB00080648FBD8FB58F7708C08FB58F7B02C0E4
:100AC0008FB580648FBD8FB580688FBD08951F92EC
:100AD0000F920FB60F9211242F933F934F935F9372
:100AE0006F937F938F939F93AF93BF93EF93FF93F6
:100AF000E0916801F0916901309709F00995FF9143
:100B0000EF91BF91AF919F918F917F916F915F9185
:100B10004F913F912F910F900FBE0F901F901895FE
:100B20001F920F920FB60F9211242F933F934F9362
:100B30005F936F937F938F939F93AF93BF93EF9345
:100B4000FF93E0916601F0916701309709F00995F4
:100B5000FF91EF91BF91AF919F918F917F916F9195
:100B60005F914F913F912F910F900FBE0F901F906B
:100B700018951F920F920FB60F9211242F933F9347
:100B80004F935F936F937F938F939F93AF93BF9395
:100B9000EF93FF93E0916401F0916501309709F0C4
:100BA0000995FF91EF91BF91AF919F918F917F91A7
:100BB0006F915F914F913F912F910F900FBE0F90CA
:100BC0001F9018951F920F920FB60F9211242F931A
:100BD0003F934F935F936F937F938F939F93AF93C5
:100BE000BF93EF93FF93E0916201F091630130971F
:100BF00009F00995FF91EF91BF91AF919F918F916E
:100C00007F916F915F914F913F912F910F900FBE08
:100C10000F901F9018951F920F920FB60F921124EC
:100C20002F933F934F935F936F937F938F939F93F4
:100C3000AF93BF93EF93FF93E0916001F091610157
:100C4000309709F00995FF91EF91BF91AF919F9176
:100C50008F917F916F915F914F913F912F910F9065
:100C60000FBE0F901F9018951F920F920FB60F9204
:100C700011242F933F934F935F936F937F938F93A1
:100C80009F93AF93BF93EF93FF93E0915E01F09139
:100C90005F01309709F00995FF91EF91BF91AF91F6
:100CA0009F918F917F916F915F914F913F912F9184
:100CB0000F900FBE0F901F90189583E389B9599834
:100CC000539A549A08958CB108951F920F920FB6BB
:100CD0000F9211242F933F934F935F936F937F93C2
:100CE0008F939F93AF93BF93EF93FF93E091720124
:100CF000F0917301309709F00995FF91EF91BF9141
:100D0000AF919F918F917F916F915F914F913F91A3
:100D10002F910F900FBE0F901F9018951F920F925A
:100D20000FB60F9211242F933F934F935F936F93BE
:100D30007F938F939F93AF93BF93EF93FF93E09134
:100D40007001F0917101309709F00995FF91EF91D1
:100D5000BF91AF919F918F917F916F915F914F91D3
:100D60003F912F910F900FBE0F901F9018951F92DB
:100D70000F920FB60F9211242F933F934F935F93CF
:100D80006F937F938F939F93AF93BF93EF93FF9353
:100D9000E0916E01F0916F01309709F00995FF9194
:100DA000EF91BF91AF919F918F917F916F915F91E3
:100DB0004F913F912F910F900FBE0F901F9018955C
:100DC000009721F090937501809374010895579ACC
:100DD00008955F9BFECF8CB10895EE0FFF1F059025
:0A0DE000F491E02D0994F894FFCF80
:100DEA00101112131415161752632043617200630F
:100DFA0061725F466F7277617264006361725F420B
:100E0A0061636B7761726400466F72776172642006
:100E1A00526967687428492900466F72776172645B
:100E2A00204C6566742847290052656365697665B2
:100E3A00205269676874284A290052656365697691
:100E4A0065204C65667428482900526967687428C9
:100E5A005229004C656674284C290053746F702817
:100E6A0053290046726F6E74204C69676874732840
:100E7A006F6E290046726F6E74204C6967687473CE
:100E8A00286F666629004261636B204C6967687443
:100E9A0073286F6E29004261636B204C696768741E
:100EAA0073286F6666290042555A5A4552286F6E52
:100EBA00290042555A5A4552286F66662900000091
:100ECA000000000000000000000000000000000018
:0E0EDA00000000020000000000000000000008
:00000001FF
